{
  "contractName": "WizzleGlobalToken",
  "abi": [
    {
      "constant": true,
      "inputs": [],
      "name": "name",
      "outputs": [
        {
          "name": "",
          "type": "string"
        }
      ],
      "payable": false,
      "stateMutability": "view",
      "type": "function"
    },
    {
      "constant": false,
      "inputs": [
        {
          "name": "_spender",
          "type": "address"
        },
        {
          "name": "_amount",
          "type": "uint256"
        }
      ],
      "name": "approve",
      "outputs": [
        {
          "name": "success",
          "type": "bool"
        }
      ],
      "payable": false,
      "stateMutability": "nonpayable",
      "type": "function"
    },
    {
      "constant": true,
      "inputs": [],
      "name": "creationBlock",
      "outputs": [
        {
          "name": "",
          "type": "uint256"
        }
      ],
      "payable": false,
      "stateMutability": "view",
      "type": "function"
    },
    {
      "constant": true,
      "inputs": [],
      "name": "totalSupply",
      "outputs": [
        {
          "name": "",
          "type": "uint256"
        }
      ],
      "payable": false,
      "stateMutability": "view",
      "type": "function"
    },
    {
      "constant": false,
      "inputs": [
        {
          "name": "_from",
          "type": "address"
        },
        {
          "name": "_to",
          "type": "address"
        },
        {
          "name": "_amount",
          "type": "uint256"
        }
      ],
      "name": "transferFrom",
      "outputs": [
        {
          "name": "success",
          "type": "bool"
        }
      ],
      "payable": false,
      "stateMutability": "nonpayable",
      "type": "function"
    },
    {
      "constant": true,
      "inputs": [],
      "name": "decimals",
      "outputs": [
        {
          "name": "",
          "type": "uint8"
        }
      ],
      "payable": false,
      "stateMutability": "view",
      "type": "function"
    },
    {
      "constant": false,
      "inputs": [
        {
          "name": "_newController",
          "type": "address"
        }
      ],
      "name": "changeController",
      "outputs": [],
      "payable": false,
      "stateMutability": "nonpayable",
      "type": "function"
    },
    {
      "constant": false,
      "inputs": [
        {
          "name": "_owner",
          "type": "address"
        },
        {
          "name": "_amount",
          "type": "uint256"
        }
      ],
      "name": "mint",
      "outputs": [
        {
          "name": "",
          "type": "bool"
        }
      ],
      "payable": false,
      "stateMutability": "nonpayable",
      "type": "function"
    },
    {
      "constant": true,
      "inputs": [
        {
          "name": "_owner",
          "type": "address"
        },
        {
          "name": "_blockNumber",
          "type": "uint256"
        }
      ],
      "name": "balanceOfAt",
      "outputs": [
        {
          "name": "",
          "type": "uint256"
        }
      ],
      "payable": false,
      "stateMutability": "view",
      "type": "function"
    },
    {
      "constant": true,
      "inputs": [
        {
          "name": "_owner",
          "type": "address"
        }
      ],
      "name": "balanceOf",
      "outputs": [
        {
          "name": "balance",
          "type": "uint256"
        }
      ],
      "payable": false,
      "stateMutability": "view",
      "type": "function"
    },
    {
      "constant": true,
      "inputs": [],
      "name": "symbol",
      "outputs": [
        {
          "name": "",
          "type": "string"
        }
      ],
      "payable": false,
      "stateMutability": "view",
      "type": "function"
    },
    {
      "constant": true,
      "inputs": [
        {
          "name": "_blockNumber",
          "type": "uint256"
        }
      ],
      "name": "totalSupplyAt",
      "outputs": [
        {
          "name": "",
          "type": "uint256"
        }
      ],
      "payable": false,
      "stateMutability": "view",
      "type": "function"
    },
    {
      "constant": false,
      "inputs": [
        {
          "name": "_to",
          "type": "address"
        },
        {
          "name": "_amount",
          "type": "uint256"
        }
      ],
      "name": "transfer",
      "outputs": [
        {
          "name": "success",
          "type": "bool"
        }
      ],
      "payable": false,
      "stateMutability": "nonpayable",
      "type": "function"
    },
    {
      "constant": true,
      "inputs": [],
      "name": "transfersEnabled",
      "outputs": [
        {
          "name": "",
          "type": "bool"
        }
      ],
      "payable": false,
      "stateMutability": "view",
      "type": "function"
    },
    {
      "constant": true,
      "inputs": [
        {
          "name": "_owner",
          "type": "address"
        },
        {
          "name": "_spender",
          "type": "address"
        }
      ],
      "name": "allowance",
      "outputs": [
        {
          "name": "remaining",
          "type": "uint256"
        }
      ],
      "payable": false,
      "stateMutability": "view",
      "type": "function"
    },
    {
      "constant": false,
      "inputs": [
        {
          "name": "_transfersEnabled",
          "type": "bool"
        }
      ],
      "name": "enableTransfers",
      "outputs": [],
      "payable": false,
      "stateMutability": "nonpayable",
      "type": "function"
    },
    {
      "constant": true,
      "inputs": [],
      "name": "controller",
      "outputs": [
        {
          "name": "",
          "type": "address"
        }
      ],
      "payable": false,
      "stateMutability": "view",
      "type": "function"
    },
    {
      "inputs": [],
      "payable": false,
      "stateMutability": "nonpayable",
      "type": "constructor"
    },
    {
      "payable": true,
      "stateMutability": "payable",
      "type": "fallback"
    },
    {
      "anonymous": false,
      "inputs": [
        {
          "indexed": true,
          "name": "_token",
          "type": "address"
        },
        {
          "indexed": true,
          "name": "_controller",
          "type": "address"
        },
        {
          "indexed": false,
          "name": "_amount",
          "type": "uint256"
        }
      ],
      "name": "ClaimedTokens",
      "type": "event"
    },
    {
      "anonymous": false,
      "inputs": [
        {
          "indexed": true,
          "name": "_from",
          "type": "address"
        },
        {
          "indexed": true,
          "name": "_to",
          "type": "address"
        },
        {
          "indexed": false,
          "name": "_amount",
          "type": "uint256"
        }
      ],
      "name": "Transfer",
      "type": "event"
    },
    {
      "anonymous": false,
      "inputs": [
        {
          "indexed": true,
          "name": "_cloneToken",
          "type": "address"
        },
        {
          "indexed": false,
          "name": "_snapshotBlock",
          "type": "uint256"
        }
      ],
      "name": "NewCloneToken",
      "type": "event"
    },
    {
      "anonymous": false,
      "inputs": [
        {
          "indexed": true,
          "name": "_owner",
          "type": "address"
        },
        {
          "indexed": true,
          "name": "_spender",
          "type": "address"
        },
        {
          "indexed": false,
          "name": "_amount",
          "type": "uint256"
        }
      ],
      "name": "Approval",
      "type": "event"
    }
  ],
  "bytecode": "0x606060405234156200001057600080fd5b336000806101000a81548173ffffffffffffffffffffffffffffffffffffffff021916908373ffffffffffffffffffffffffffffffffffffffff1602179055506040805190810160405280601381526020017f57697a7a6c6520476c6f62616c20546f6b656e00000000000000000000000000815250600190805190602001906200009d92919062000130565b506000600260006101000a81548160ff021916908360ff1602179055506040805190810160405280600381526020017f575a470000000000000000000000000000000000000000000000000000000000815250600390805190602001906200010792919062000130565b506000600860006101000a81548160ff02191690831515021790555043600481905550620001df565b828054600181600116156101000203166002900490600052602060002090601f016020900481019282601f106200017357805160ff1916838001178555620001a4565b82800160010185558215620001a4579182015b82811115620001a357825182559160200191906001019062000186565b5b509050620001b39190620001b7565b5090565b620001dc91905b80821115620001d8576000816000905550600101620001be565b5090565b90565b61166e80620001ef6000396000f3006060604052600436106100f1576000357c0100000000000000000000000000000000000000000000000000000000900463ffffffff16806306fdde03146100f6578063095ea7b31461018457806317634514146101de57806318160ddd1461020757806323b872dd14610230578063313ce567146102a95780633cebb823146102d857806340c10f19146103115780634ee2cd7e1461036b57806370a08231146103c157806395d89b411461040e578063981b24d01461049c578063a9059cbb146104d3578063bef97c871461052d578063dd62ed3e1461055a578063f41e60c5146105c6578063f77c4791146105eb575b600080fd5b341561010157600080fd5b610109610640565b6040518080602001828103825283818151815260200191508051906020019080838360005b8381101561014957808201518184015260208101905061012e565b50505050905090810190601f1680156101765780820380516001836020036101000a031916815260200191505b509250505060405180910390f35b341561018f57600080fd5b6101c4600480803573ffffffffffffffffffffffffffffffffffffffff169060200190919080359060200190919050506106de565b604051808215151515815260200191505060405180910390f35b34156101e957600080fd5b6101f1610881565b6040518082815260200191505060405180910390f35b341561021257600080fd5b61021a610887565b6040518082815260200191505060405180910390f35b341561023b57600080fd5b61028f600480803573ffffffffffffffffffffffffffffffffffffffff1690602001909190803573ffffffffffffffffffffffffffffffffffffffff16906020019091908035906020019091905050610897565b604051808215151515815260200191505060405180910390f35b34156102b457600080fd5b6102bc610a36565b604051808260ff1660ff16815260200191505060405180910390f35b34156102e357600080fd5b61030f600480803573ffffffffffffffffffffffffffffffffffffffff16906020019091905050610a49565b005b341561031c57600080fd5b610351600480803573ffffffffffffffffffffffffffffffffffffffff16906020019091908035906020019091905050610ae7565b604051808215151515815260200191505060405180910390f35b341561037657600080fd5b6103ab600480803573ffffffffffffffffffffffffffffffffffffffff16906020019091908035906020019091905050610c31565b6040518082815260200191505060405180910390f35b34156103cc57600080fd5b6103f8600480803573ffffffffffffffffffffffffffffffffffffffff16906020019091905050610d6a565b6040518082815260200191505060405180910390f35b341561041957600080fd5b610421610d7d565b6040518080602001828103825283818151815260200191508051906020019080838360005b83811015610461578082015181840152602081019050610446565b50505050905090810190601f16801561048e5780820380516001836020036101000a031916815260200191505b509250505060405180910390f35b34156104a757600080fd5b6104bd6004808035906020019091905050610e1b565b6040518082815260200191505060405180910390f35b34156104de57600080fd5b610513600480803573ffffffffffffffffffffffffffffffffffffffff16906020019091908035906020019091905050610e9c565b604051808215151515815260200191505060405180910390f35b341561053857600080fd5b610540610ece565b604051808215151515815260200191505060405180910390f35b341561056557600080fd5b6105b0600480803573ffffffffffffffffffffffffffffffffffffffff1690602001909190803573ffffffffffffffffffffffffffffffffffffffff16906020019091905050610ee1565b6040518082815260200191505060405180910390f35b34156105d157600080fd5b6105e960048080351515906020019091905050610f68565b005b34156105f657600080fd5b6105fe610fe0565b604051808273ffffffffffffffffffffffffffffffffffffffff1673ffffffffffffffffffffffffffffffffffffffff16815260200191505060405180910390f35b60018054600181600116156101000203166002900480601f0160208091040260200160405190810160405280929190818152602001828054600181600116156101000203166002900480156106d65780601f106106ab576101008083540402835291602001916106d6565b820191906000526020600020905b8154815290600101906020018083116106b957829003601f168201915b505050505081565b6000600860009054906101000a900460ff1615156106fb57600080fd5b600082148061078657506000600660003373ffffffffffffffffffffffffffffffffffffffff1673ffffffffffffffffffffffffffffffffffffffff16815260200190815260200160002060008573ffffffffffffffffffffffffffffffffffffffff1673ffffffffffffffffffffffffffffffffffffffff16815260200190815260200160002054145b151561079157600080fd5b81600660003373ffffffffffffffffffffffffffffffffffffffff1673ffffffffffffffffffffffffffffffffffffffff16815260200190815260200160002060008573ffffffffffffffffffffffffffffffffffffffff1673ffffffffffffffffffffffffffffffffffffffff168152602001908152602001600020819055508273ffffffffffffffffffffffffffffffffffffffff163373ffffffffffffffffffffffffffffffffffffffff167f8c5be1e5ebec7d5bd14f71427d1e84f3dd0314c0f7b2291e5b200ac8c7c3b925846040518082815260200191505060405180910390a36001905092915050565b60045481565b600061089243610e1b565b905090565b60008060009054906101000a900473ffffffffffffffffffffffffffffffffffffffff1673ffffffffffffffffffffffffffffffffffffffff163373ffffffffffffffffffffffffffffffffffffffff16141515610a2057600860009054906101000a900460ff16151561090a57600080fd5b81600660008673ffffffffffffffffffffffffffffffffffffffff1673ffffffffffffffffffffffffffffffffffffffff16815260200190815260200160002060003373ffffffffffffffffffffffffffffffffffffffff1673ffffffffffffffffffffffffffffffffffffffff168152602001908152602001600020541015151561099557600080fd5b81600660008673ffffffffffffffffffffffffffffffffffffffff1673ffffffffffffffffffffffffffffffffffffffff16815260200190815260200160002060003373ffffffffffffffffffffffffffffffffffffffff1673ffffffffffffffffffffffffffffffffffffffff168152602001908152602001600020600082825403925050819055505b610a2b848484611005565b600190509392505050565b600260009054906101000a900460ff1681565b6000809054906101000a900473ffffffffffffffffffffffffffffffffffffffff1673ffffffffffffffffffffffffffffffffffffffff163373ffffffffffffffffffffffffffffffffffffffff16141515610aa457600080fd5b806000806101000a81548173ffffffffffffffffffffffffffffffffffffffff021916908373ffffffffffffffffffffffffffffffffffffffff16021790555050565b60008060008060009054906101000a900473ffffffffffffffffffffffffffffffffffffffff1673ffffffffffffffffffffffffffffffffffffffff163373ffffffffffffffffffffffffffffffffffffffff16141515610b4757600080fd5b610b4f610887565b91508184830110151515610b6257600080fd5b610b6b85610d6a565b90508084820110151515610b7e57600080fd5b610b8b6007858401611226565b610bd5600560008773ffffffffffffffffffffffffffffffffffffffff1673ffffffffffffffffffffffffffffffffffffffff168152602001908152602001600020858301611226565b8473ffffffffffffffffffffffffffffffffffffffff1660007fddf252ad1be2c89b69c2b068fc378daa952ba7f163c4a11628f55a4df523b3ef866040518082815260200191505060405180910390a360019250505092915050565b600080600560008573ffffffffffffffffffffffffffffffffffffffff1673ffffffffffffffffffffffffffffffffffffffff168152602001908152602001600020805490501480610d0b575081600560008573ffffffffffffffffffffffffffffffffffffffff1673ffffffffffffffffffffffffffffffffffffffff1681526020019081526020016000206000815481101515610ccc57fe5b906000526020600020900160000160009054906101000a90046fffffffffffffffffffffffffffffffff166fffffffffffffffffffffffffffffffff16115b15610d195760009050610d64565b610d61600560008573ffffffffffffffffffffffffffffffffffffffff1673ffffffffffffffffffffffffffffffffffffffff1681526020019081526020016000208361139d565b90505b92915050565b6000610d768243610c31565b9050919050565b60038054600181600116156101000203166002900480601f016020809104026020016040519081016040528092919081815260200182805460018160011615610100020316600290048015610e135780601f10610de857610100808354040283529160200191610e13565b820191906000526020600020905b815481529060010190602001808311610df657829003601f168201915b505050505081565b6000806007805490501480610e7b57508160076000815481101515610e3c57fe5b906000526020600020900160000160009054906101000a90046fffffffffffffffffffffffffffffffff166fffffffffffffffffffffffffffffffff16115b15610e895760009050610e97565b610e9460078361139d565b90505b919050565b6000600860009054906101000a900460ff161515610eb957600080fd5b610ec4338484611005565b6001905092915050565b600860009054906101000a900460ff1681565b6000600660008473ffffffffffffffffffffffffffffffffffffffff1673ffffffffffffffffffffffffffffffffffffffff16815260200190815260200160002060008373ffffffffffffffffffffffffffffffffffffffff1673ffffffffffffffffffffffffffffffffffffffff16815260200190815260200160002054905092915050565b6000809054906101000a900473ffffffffffffffffffffffffffffffffffffffff1673ffffffffffffffffffffffffffffffffffffffff163373ffffffffffffffffffffffffffffffffffffffff16141515610fc357600080fd5b80600860006101000a81548160ff02191690831515021790555050565b6000809054906101000a900473ffffffffffffffffffffffffffffffffffffffff1681565b600080600083141561107b578373ffffffffffffffffffffffffffffffffffffffff168573ffffffffffffffffffffffffffffffffffffffff167fddf252ad1be2c89b69c2b068fc378daa952ba7f163c4a11628f55a4df523b3ef856040518082815260200191505060405180910390a361121f565b600073ffffffffffffffffffffffffffffffffffffffff168473ffffffffffffffffffffffffffffffffffffffff16141580156110e457503073ffffffffffffffffffffffffffffffffffffffff168473ffffffffffffffffffffffffffffffffffffffff1614155b15156110ef57600080fd5b6110f885610d6a565b915082821015151561110957600080fd5b61111284610d6a565b9050808382011015151561112557600080fd5b61116f600560008773ffffffffffffffffffffffffffffffffffffffff1673ffffffffffffffffffffffffffffffffffffffff168152602001908152602001600020848403611226565b6111b9600560008673ffffffffffffffffffffffffffffffffffffffff1673ffffffffffffffffffffffffffffffffffffffff168152602001908152602001600020848301611226565b8373ffffffffffffffffffffffffffffffffffffffff168573ffffffffffffffffffffffffffffffffffffffff167fddf252ad1be2c89b69c2b068fc378daa952ba7f163c4a11628f55a4df523b3ef856040518082815260200191505060405180910390a35b5050505050565b60008060008480549050148061128c57504384600186805490500381548110151561124d57fe5b906000526020600020900160000160009054906101000a90046fffffffffffffffffffffffffffffffff166fffffffffffffffffffffffffffffffff16105b1561133957838480548091906001016112a591906115b1565b8154811015156112b157fe5b90600052602060002090019150438260000160006101000a8154816fffffffffffffffffffffffffffffffff02191690836fffffffffffffffffffffffffffffffff160217905550828260000160106101000a8154816fffffffffffffffffffffffffffffffff02191690836fffffffffffffffffffffffffffffffff160217905550611397565b83600185805490500381548110151561134e57fe5b90600052602060002090019050828160000160106101000a8154816fffffffffffffffffffffffffffffffff02191690836fffffffffffffffffffffffffffffffff1602179055505b50505050565b6000806000806000868054905014156113b957600093506115a8565b8560018780549050038154811015156113ce57fe5b906000526020600020900160000160009054906101000a90046fffffffffffffffffffffffffffffffff166fffffffffffffffffffffffffffffffff168510151561146c5785600187805490500381548110151561142857fe5b906000526020600020900160000160109054906101000a90046fffffffffffffffffffffffffffffffff166fffffffffffffffffffffffffffffffff1693506115a8565b85600081548110151561147b57fe5b906000526020600020900160000160009054906101000a90046fffffffffffffffffffffffffffffffff166fffffffffffffffffffffffffffffffff168510156114c857600093506115a8565b60009250600186805490500391505b8282111561155a5760026001848401018115156114f057fe5b04905084868281548110151561150257fe5b906000526020600020900160000160009054906101000a90046fffffffffffffffffffffffffffffffff166fffffffffffffffffffffffffffffffff1611151561154e57809250611555565b6001810391505b6114d7565b858381548110151561156857fe5b906000526020600020900160000160109054906101000a90046fffffffffffffffffffffffffffffffff166fffffffffffffffffffffffffffffffff1693505b50505092915050565b8154818355818115116115d8578183600052602060002091820191016115d791906115dd565b5b505050565b61163f91905b8082111561163b57600080820160006101000a8154906fffffffffffffffffffffffffffffffff02191690556000820160106101000a8154906fffffffffffffffffffffffffffffffff0219169055506001016115e3565b5090565b905600a165627a7a72305820f95a651275709fd8fb7c9b892f701efc17c4e8b2d89eb87b3c26c1bd66fa16270029",
  "source": "pragma solidity ^0.4.18;\r\n\r\nimport \"./Controlled.sol\";\r\n\r\ncontract WizzleGlobalToken is Controlled {\r\n\r\n    string public name;              \r\n    uint8 public decimals;            \r\n    string public symbol;\r\n\r\n    struct Checkpoint {\r\n        uint128 fromBlock;\r\n        uint128 value;\r\n    }\r\n\r\n    // block number when token was created\r\n    uint public creationBlock;\r\n    mapping (address => Checkpoint[]) balances;\r\n    mapping (address => mapping (address => uint256)) allowed;\r\n    Checkpoint[] totalSupplyHistory;\r\n    bool public transfersEnabled;\r\n    \r\n    function WizzleGlobalToken() public {\r\n        name = \"Wizzle Global Token\";           \r\n        decimals = 0;         \r\n        symbol = \"WZG\";                 \r\n        transfersEnabled = false;\r\n        creationBlock = block.number;\r\n    }\r\n\r\n    function transfer(address _to, uint256 _amount) public returns (bool success) {\r\n        require(transfersEnabled);\r\n        doTransfer(msg.sender, _to, _amount);\r\n        return true;\r\n    }\r\n\r\n    function transferFrom(address _from, address _to, uint256 _amount) public returns (bool success) {\r\n        if (msg.sender != controller) {\r\n            require(transfersEnabled);\r\n            require(allowed[_from][msg.sender] >= _amount);\r\n            allowed[_from][msg.sender] -= _amount;\r\n        }\r\n        // controller can always do transfers\r\n        doTransfer(_from, _to, _amount);\r\n        return true;\r\n    }\r\n\r\n    function doTransfer(address _from, address _to, uint _amount) internal {\r\n           if (_amount == 0) {\r\n               Transfer(_from, _to, _amount); // follow the spec to raise the event when transfer 0\r\n               return;\r\n           }\r\n\r\n           require((_to != address(0)) && (_to != address(this)));\r\n           var previousBalanceFrom = balanceOf(_from);\r\n           require(previousBalanceFrom >= _amount);\r\n           var previousBalanceTo = balanceOf(_to);\r\n           require(previousBalanceTo + _amount >= previousBalanceTo); // Check for overflow\r\n\r\n           // Alerts the token controller of the transfer\r\n           /*\r\n           if (isContract(controller)) {\r\n               require(TokenController(controller).onTransfer(_from, _to, _amount));\r\n           }\r\n           */\r\n\r\n           updateValueAtNow(balances[_from], previousBalanceFrom - _amount);\r\n           updateValueAtNow(balances[_to], previousBalanceTo + _amount);\r\n           Transfer(_from, _to, _amount);\r\n    }\r\n\r\n    function balanceOf(address _owner) public constant returns (uint256 balance) {\r\n        return balanceOfAt(_owner, block.number);\r\n    }\r\n\r\n    function approve(address _spender, uint256 _amount) public returns (bool success) {\r\n        require(transfersEnabled);\r\n        require((_amount == 0) || (allowed[msg.sender][_spender] == 0));\r\n\r\n        // Alerts the token controller of the approve function call\r\n        /*\r\n        if (isContract(controller)) {\r\n            require(TokenController(controller).onApprove(msg.sender, _spender, _amount));\r\n        }\r\n        */\r\n\r\n        allowed[msg.sender][_spender] = _amount;\r\n        Approval(msg.sender, _spender, _amount);\r\n        return true;\r\n    }\r\n\r\n    function allowance(address _owner, address _spender) public constant returns (uint256 remaining) {\r\n        return allowed[_owner][_spender];\r\n    }\r\n\r\n    function totalSupply() public constant returns (uint) {\r\n        return totalSupplyAt(block.number);\r\n    }\r\n\r\n    function balanceOfAt(address _owner, uint _blockNumber) public constant returns (uint) {\r\n        if ((balances[_owner].length == 0) || (balances[_owner][0].fromBlock > _blockNumber)) {\r\n            return 0;\r\n        } else {\r\n            return getValueAt(balances[_owner], _blockNumber);\r\n        }\r\n    }\r\n    function totalSupplyAt(uint _blockNumber) public constant returns(uint) {\r\n        if ((totalSupplyHistory.length == 0) || (totalSupplyHistory[0].fromBlock > _blockNumber)) {\r\n            return 0;\r\n        } else {\r\n            return getValueAt(totalSupplyHistory, _blockNumber);\r\n        }\r\n    }\r\n\r\n    function mint(address _owner, uint _amount) public onlyController returns (bool) {\r\n        uint curTotalSupply = totalSupply();\r\n        require(curTotalSupply + _amount >= curTotalSupply); // Check for overflow\r\n        uint previousBalanceTo = balanceOf(_owner);\r\n        require(previousBalanceTo + _amount >= previousBalanceTo); // Check for overflow\r\n        updateValueAtNow(totalSupplyHistory, curTotalSupply + _amount);\r\n        updateValueAtNow(balances[_owner], previousBalanceTo + _amount);\r\n        Transfer(0, _owner, _amount);\r\n        return true;\r\n    }\r\n\r\n    function enableTransfers(bool _transfersEnabled) public onlyController {\r\n        transfersEnabled = _transfersEnabled;\r\n    }\r\n\r\n    function getValueAt(Checkpoint[] storage checkpoints, uint _block) constant internal returns (uint) {\r\n        if (checkpoints.length == 0) \r\n            return 0;\r\n\r\n        // Shortcut for the actual value\r\n        if (_block >= checkpoints[checkpoints.length-1].fromBlock)\r\n            return checkpoints[checkpoints.length-1].value;\r\n        if (_block < checkpoints[0].fromBlock) \r\n            return 0;\r\n\r\n        // Binary search of the value in the array\r\n        uint min = 0;\r\n        uint max = checkpoints.length-1;\r\n        while (max > min) {\r\n            uint mid = (max + min + 1) / 2;\r\n            if (checkpoints[mid].fromBlock<=_block) {\r\n                min = mid;\r\n            } else {\r\n                max = mid-1;\r\n            }\r\n        }\r\n        return checkpoints[min].value;\r\n    }\r\n\r\n    function updateValueAtNow(Checkpoint[] storage checkpoints, uint _value) internal {\r\n        if ((checkpoints.length == 0) || (checkpoints[checkpoints.length-1].fromBlock < block.number)) {\r\n               Checkpoint storage newCheckPoint = checkpoints[checkpoints.length++];\r\n               newCheckPoint.fromBlock = uint128(block.number);\r\n               newCheckPoint.value = uint128(_value);\r\n           } else {\r\n               Checkpoint storage oldCheckPoint = checkpoints[checkpoints.length-1];\r\n               oldCheckPoint.value = uint128(_value);\r\n           }\r\n    }\r\n\r\n    /*\r\n    function isContract(address _addr) constant internal returns(bool) {\r\n        uint size;\r\n        if (_addr == 0) \r\n            return false;\r\n        assembly {\r\n            size := extcodesize(_addr)\r\n        }\r\n        return size>0;\r\n    }\r\n    */\r\n\r\n    function min(uint a, uint b) pure internal returns (uint) {\r\n        return a < b ? a : b;\r\n    }\r\n\r\n    /// @notice The fallback function: If the contract's controller has not been\r\n    ///  set to 0, then the `proxyPayment` method is called which relays the\r\n    ///  ether and creates tokens as described in the token controller contract\r\n    /*\r\n    function () public payable {\r\n        require(isContract(controller));\r\n        require(TokenController(controller).proxyPayment.value(msg.value)(msg.sender));\r\n    }\r\n    */\r\n\r\n    function () public payable {\r\n        revert();\r\n    }\r\n\r\n    event ClaimedTokens(address indexed _token, address indexed _controller, uint _amount);\r\n    event Transfer(address indexed _from, address indexed _to, uint256 _amount);\r\n    event NewCloneToken(address indexed _cloneToken, uint _snapshotBlock);\r\n    event Approval(address indexed _owner, address indexed _spender, uint256 _amount);\r\n\r\n    /// @notice This method can be used by the controller to extract mistakenly\r\n    ///  sent tokens to this contract.\r\n    /// @param _token The address of the token contract that you want to recover\r\n    ///  set to 0 in case you want to extract ether.\r\n    /*\r\n    function claimTokens(address _token) public onlyController {\r\n        if (_token == 0x0) {\r\n            controller.transfer(this.balance); // TODO: Maybe not needed if fallback calls revert()\r\n            return;\r\n        }\r\n\r\n        WizzleGlobalToken token = WizzleGlobalToken(_token);\r\n        uint balance = token.balanceOf(this);\r\n        token.transfer(controller, balance);\r\n        ClaimedTokens(_token, controller, balance);\r\n    }\r\n    */\r\n\r\n}\r\n",
  "sourcePath": "C:\\Users\\Flashboys 01\\Desktop\\WZG\\wzg\\contracts\\WZGToken.sol",
  "compiler": {
    "name": "solc",
    "version": "0.4.18+commit.9cf6e910.Emscripten.clang"
  },
  "schemaVersion": "1.0.1",
  "updatedAt": "2018-01-18T10:31:37.181Z"
}